{
  "contractName": "Voting",
  "abi": [
    {
      "constant": true,
      "inputs": [
        {
          "name": "",
          "type": "address"
        }
      ],
      "name": "userVoted",
      "outputs": [
        {
          "name": "",
          "type": "bool"
        }
      ],
      "payable": false,
      "stateMutability": "view",
      "type": "function"
    },
    {
      "constant": true,
      "inputs": [
        {
          "name": "",
          "type": "bytes32"
        }
      ],
      "name": "votesReceived",
      "outputs": [
        {
          "name": "",
          "type": "uint256"
        }
      ],
      "payable": false,
      "stateMutability": "view",
      "type": "function"
    },
    {
      "constant": true,
      "inputs": [
        {
          "name": "",
          "type": "uint256"
        }
      ],
      "name": "candidateList",
      "outputs": [
        {
          "name": "",
          "type": "bytes32"
        }
      ],
      "payable": false,
      "stateMutability": "view",
      "type": "function"
    },
    {
      "inputs": [
        {
          "name": "c",
          "type": "bytes32[]"
        }
      ],
      "payable": false,
      "stateMutability": "nonpayable",
      "type": "constructor"
    },
    {
      "constant": true,
      "inputs": [],
      "name": "test",
      "outputs": [
        {
          "name": "",
          "type": "string"
        }
      ],
      "payable": false,
      "stateMutability": "pure",
      "type": "function"
    },
    {
      "constant": true,
      "inputs": [
        {
          "name": "candidate",
          "type": "bytes32"
        }
      ],
      "name": "getTotalByCandidate",
      "outputs": [
        {
          "name": "",
          "type": "uint256"
        }
      ],
      "payable": false,
      "stateMutability": "view",
      "type": "function"
    },
    {
      "constant": false,
      "inputs": [
        {
          "name": "candidate",
          "type": "bytes32"
        }
      ],
      "name": "voteForCandidate",
      "outputs": [],
      "payable": true,
      "stateMutability": "payable",
      "type": "function"
    },
    {
      "constant": true,
      "inputs": [],
      "name": "getCandidates",
      "outputs": [
        {
          "name": "",
          "type": "bytes32[]"
        }
      ],
      "payable": false,
      "stateMutability": "view",
      "type": "function"
    }
  ],
  "bytecode": "0x608060405234801561001057600080fd5b506040516107e23803806107e28339810180604052602081101561003357600080fd5b81019080805164010000000081111561004b57600080fd5b8281019050602081018481111561006157600080fd5b815185602082028301116401000000008211171561007e57600080fd5b5050929190505050806002908051906020019061009c9291906100a3565b5050610115565b8280548282559060005260206000209081019282156100df579160200282015b828111156100de5782518255916020019190600101906100c3565b5b5090506100ec91906100f0565b5090565b61011291905b8082111561010e5760008160009055506001016100f6565b5090565b90565b6106be806101246000396000f3fe6080604052600436106100705760003560e01c80637021939f1161004e5780637021939f14610199578063b13c744b146101e8578063cc9ab26714610237578063f8a8fd6d1461026557610070565b806306a49fce14610075578063254fe7d7146100e15780635538d23d1461014a575b600080fd5b34801561008157600080fd5b5061008a6102f5565b6040518080602001828103825283818151815260200191508051906020019060200280838360005b838110156100cd5780820151818401526020810190506100b2565b505050509050019250505060405180910390f35b3480156100ed57600080fd5b506101306004803603602081101561010457600080fd5b81019080803573ffffffffffffffffffffffffffffffffffffffff16906020019092919050505061034d565b604051808215151515815260200191505060405180910390f35b34801561015657600080fd5b506101836004803603602081101561016d57600080fd5b810190808035906020019092919050505061036d565b6040518082815260200191505060405180910390f35b3480156101a557600080fd5b506101d2600480360360208110156101bc57600080fd5b81019080803590602001909291905050506103e7565b6040518082815260200191505060405180910390f35b3480156101f457600080fd5b506102216004803603602081101561020b57600080fd5b81019080803590602001909291905050506103ff565b6040518082815260200191505060405180910390f35b6102636004803603602081101561024d57600080fd5b8101908080359060200190929190505050610420565b005b34801561027157600080fd5b5061027a610591565b6040518080602001828103825283818151815260200191508051906020019080838360005b838110156102ba57808201518184015260208101905061029f565b50505050905090810190601f1680156102e75780820380516001836020036101000a031916815260200191505b509250505060405180910390f35b6060600280548060200260200160405190810160405280929190818152602001828054801561034357602002820191906000526020600020905b81548152602001906001019080831161032f575b5050505050905090565b60016020528060005260406000206000915054906101000a900460ff1681565b6000610378826105ce565b6103cd576040517f08c379a000000000000000000000000000000000000000000000000000000000815260040180806020018281038252602e815260200180610644602e913960400191505060405180910390fd5b600080838152602001908152602001600020549050919050565b60006020528060005260406000206000915090505481565b6002818154811061040c57fe5b906000526020600020016000915090505481565b610429816105ce565b61047e576040517f08c379a00000000000000000000000000000000000000000000000000000000081526004018080602001828103825260218152602001806106726021913960400191505060405180910390fd5b67016345785d8a000034146104fb576040517f08c379a000000000000000000000000000000000000000000000000000000000815260040180806020018281038252601f8152602001807fe68a95e7a5a8e4b880e6aca1e8a681e88ab1e8b4b9302e31206574686572210081525060200191505060405180910390fd5b61052160016000808481526020019081526020016000205461062490919063ffffffff16565b6000808381526020019081526020016000208190555060018060003373ffffffffffffffffffffffffffffffffffffffff1673ffffffffffffffffffffffffffffffffffffffff16815260200190815260200160002060006101000a81548160ff02191690831515021790555050565b60606040518060400160405280601d81526020017f68656c6c6f2c20e8bf99e698afe68a95e7a5a8e59088e7baa674657374000000815250905090565b600080600090505b6002805490508110156106195782600282815481106105f157fe5b9060005260206000200154141561060c57600191505061061f565b80806001019150506105d6565b50600090505b919050565b60008082840190508381101561063957600080fd5b809150509291505056fee88eb7e58f96e68a95e7a5a8e695b0e9878fe5a4b1e8b4a5efbc9ae697a0e69588e79a84e58099e98089e4baba21e68a95e7a5a8e5a4b1e8b4a5efbc9ae697a0e69588e79a84e58099e98089e4babaa165627a7a7230582044b36fdee8427abcd0ac1ce24113454f066d241c15622447ca0db54a534024350029",
  "source": "pragma solidity ^0.5.0;\n//pragma experimental ABIEncoderV2;\nimport \"./SafeMath.sol\";\ncontract Voting {\n    using SafeMath for uint;\n    //候选人被投的票数\n    mapping(bytes32 => uint) public votesReceived;\n    //用户是否已经投过了\n    mapping(address => bool) public userVoted;\n    //候选人\n    bytes32[] public candidateList;\n    //构造函数 部署的时候传递\n    constructor(bytes32[] memory c) public {\n        //candidateList = [bytes32(\"test1\"), bytes32(\"test2\")];\n        candidateList = c;\n    }\n    function test() public pure returns (string memory){\n        return \"hello, 这是投票合约test\";\n    }\n    //某个候选人总票数\n    function getTotalByCandidate(bytes32 candidate) public view returns(uint){\n        require(validCandidate(candidate), \"获取投票数量失败：无效的候选人!\");\n        return votesReceived[candidate];\n    }\n    //为某个候选人投票\n    function voteForCandidate(bytes32 candidate) public payable{\n        require(validCandidate(candidate), \"投票失败：无效的候选人\");\n        // 为了便于测试，一人一票这个限制放开\n        /*if (userVoted[msg.sender] == true) {\n            require(false, \"你已经投过票了\");\n        }*/\n        //投票要花钱\n        require(msg.value == 0.1 ether, \"投票一次要花费0.1 ether!\");\n        votesReceived[candidate] = votesReceived[candidate].add(1);\n        userVoted[msg.sender] = true;\n    }\n    //获取候选人\n    function getCandidates() public view returns(bytes32[] memory) {\n        return candidateList;\n    }\n    //验证投的候选人是否是合法的\n    function validCandidate(bytes32 candidate) private view returns(bool){\n        for (uint i = 0; i < candidateList.length; i++) {\n            if (candidateList[i] == candidate) {\n                return true;\n            }\n        }\n        return false;\n    }\n}\n",
  "sourcePath": "/Users/django/www/blockchain-projects/Voting/contracts/Voting.sol",
  "compiler": {
    "name": "solc",
    "version": "0.5.8+commit.23d335f2.Emscripten.clang"
  },
  "schemaVersion": "3.0.11",
  "updatedAt": "2019-08-07T07:16:49.018Z",
  "devdoc": {
    "methods": {}
  },
  "userdoc": {
    "methods": {}
  }
}